:100000000200BACFCDCFCECCCE1200657C007D0AE7
:10001000120065ED2430FFD2FC120213C2FE020270
:0100200019C6
:10002300020169BB010CE58229F582E5833AF58378
:10003300E0225006E92582F8E622BBFE06E9258286
:10004300F8E222E58229F582E5833AF583E49322F7
:10005300EF8DF0A4A8F0CF8CF0A428CE8DF0A42EC1
:10006300FE22BC000BBE0029EF8DF084FFADF02211
:10007300E4CCF875F008EF2FFFEE33FEEC33FCEE23
:100083009DEC984005FCEE9DFE0FD5F0E9E4CEFD16
:1000930022EDF8F5F0EE8420D21CFEADF075F008E9
:1000A300EF2FFFED33FD4007985006D5F0F222C342
:1000B30098FD0FD5F0EA22787FE4F6D8FD75811F0D
:1000C3000201010201E7E493A3F8E493A34003F6DA
:1000D3008001F208DFF48029E493A3F85407240C89
:1000E300C8C333C4540F4420C8834004F45680016A
:1000F30046F6DFE4800B01020408102040809002E2
:100103002CE47E019360BCA3FF543F30E509541FE8
:10011300FEE493A360010ECF54C025E060A840B86D
:10012300E493A3FAE493A3F8E493A3C8C582C8CAEB
:10013300C583CAF0A3C8C582C8CAC583CADFE9DEBE
:10014300E780BE8B1D8A1E891F1201AEE4FDAB1D25
:10015300AA1EA91F8D82758300120026FF60061256
:1001630000170D80E922C0E0C0D075D000C000C0E8
:100173000730980CAF1C051C74082FF8A699C29879
:10018300D007D000D0D0D0E032E4F594F593F592C7
:10019300F591F596F595F5B2F5B1F5B4F5B3F5CA64
:1001A300F5C9F5CCF5CBF5E2F5E122AE07EEFB7A26
:1001B3000064017004ED148009EB64024A7009EDD8
:1001C300243F4480FF12022222759850438E4053ED
:1001D3008EFE53890F758BA0758DFFC2ABD28ED265
:1001E300ACD2AF2212018C1201CC1201FF7B007A38
:1001F3000079087D017F0112014680F17F381202E8
:10020300227F0C1202227F061202227F01020222A7
:10021300C2FD8F80D2FE7F027EEFDEFEDFFC22C2B4
:0D022300FC120213C2FE020219011C0000B1
:00000001FF
