:10000000020003787FE4F6D8FD75810902004A02F8
:10001000008FE493A3F8E493A34003F68001F20871
:10002000DFF48029E493A3F85407240CC8C333C435
:10003000540F4420C8834004F456800146F6DFE4A0
:10004000800B0102040810204080900136E47E01FC
:100050009360BCA3FF543F30E509541FFEE493A313
:1000600060010ECF54C025E060A840B8E493A3FA25
:10007000E493A3F8E493A3C8C582C8CAC583CAF0B1
:10008000A3C8C582C8CAC583CADFE9DEE780BE123D
:1000900000FB12011D20EA1C12011D30EAFD1201B5
:1000A0001D0508D3E5089407748094804003750803
:1000B0000575090120E91C12011D30E9FD12011D21
:1000C0001508C3E5089405748094805003750807EB
:1000D000750901E5096013AF08A8077401088002DB
:1000E000C333D8FCF4F580E4F50920E8A812011D1B
:1000F00030E8FD12011D7580FF809AE4F594F593B8
:10010000F592F591F596F595F5B2F5B1F5B4F5B32F
:10011000F5CAF5C9F5CCF5CBF5E2F5E1227F147E01
:1001200000EF1FAC0670011E4C600A7D3C7C93DC26
:0D013000FEDDFC80EC220108050109010044
:00000001FF
