:100000000201ACBB010CE58229F582E5833AF58358
:10001000E0225006E92582F8E622BBFE06E92582A9
:10002000F8E222E58229F582E5833AF583E493221A
:10003000EF8DF0A4A8F0CF8CF0A428CE8DF0A42EE4
:10004000FE22BC000BBE0029EF8DF084FFADF02234
:10005000E4CCF875F008EF2FFFEE33FEEC33FCEE46
:100060009DEC984005FCEE9DFE0FD5F0E9E4CEFD39
:1000700022EDF8F5F0EE8420D21CFEADF075F0080C
:10008000EF2FFFED33FD4007985006D5F0F222C365
:1000900098FD0FD5F0EA22EF24FFFDEE34FFFC7F40
:1000A0000A8E0F8F108C118D127F017E00E4FBEB06
:1000B000C39512E5116480F8748098500AAC0FADB6
:1000C000101200300B80E822E4F508F50912011641
:1000D000120189750E05AB09AA087D017F01120086
:1000E000F20509E509700205087FE87E0312017434
:1000F00080E18A0C8B0D120156AA0EEAFF7E00D316
:10010000940074809480400D120097AC0CAD0D12D9
:1001100001381A80E622E4F594F593F592F591F50D
:1001200096F595F5B2F5B1F5B4F5B3F5CAF5C9F59F
:10013000CCF5CBF5E2F5E122CFCDCFCECCCE12007F
:10014000427C007D0A120042ED2430FFD280120171
:100150009DC2820201A3AE07EEFB7A006401700427
:10016000ED148009EB64024A7009ED243F4480FFDE
:100170001201B822EF1FAC0670011E4C600A7D3CD4
:100180007C93DCFEDDFC80EC227F381201B87F0C12
:100190001201B87F061201B87F010201B8C2818F37
:1001A000A0D2827F027EEFDEFEDFFC22787FE4F6C3
:1001B000D8FD7581120200C8C28012019DC2820260
:0201C00001A399
:00000001FF
