:10000000020003787FE4F6D8FD75811102004A02F0
:1000100000C2E493A3F8E493A34003F68001F2083E
:10002000DFF48029E493A3F85407240CC8C333C435
:10003000540F4420C8834004F456800146F6DFE4A0
:10004000800B01020408102040809000E0E47E0153
:100050009360BCA3FF543F30E509541FFEE493A313
:1000600060010ECF54C025E060A840B8E493A3FA25
:10007000E493A3F8E493A3C8C582C8CAC583CAF0B1
:10008000A3C8C582C8CAC583CADFE9DEE780BEA9A6
:1000900007E4FDFCAF057E007401A807088005C3D6
:1000A00033CE33CED8F9FFE9FBEF5BD37001C392B7
:1000B000811200ED0DBD00010CED64084C70D502FD
:1000C00000F2C282C280C281E4FAEAC3940A748058
:1000D000948050F474082AF8E6FF12008F0A80EA30
:1000E0000A08FC60DBF266B6BEE0FEF600D280C213
:0700F0008022D282C28222AD
:00000001FF
