:10000000020003787FE4F6D8FD75811102004A02F0
:1000100000C2E493A3F8E493A34003F68001F2083E
:10002000DFF48029E493A3F85407240CC8C333C435
:10003000540F4420C8834004F456800146F6DFE4A0
:10004000800B0102040810204080900121E47E0111
:100050009360BCA3FF543F30E509541FFEE493A313
:1000600060010ECF54C025E060A840B8E493A3FA25
:10007000E493A3F8E493A3C8C582C8CAC583CAF0B1
:10008000A3C8C582C8CAC583CADFE9DEE780BEA9A6
:1000900007E4FDFCAF057E007401A807088005C3D6
:1000A00033CE33CED8F9FFE9FBEF5BD37001C392B7
:1000B000B512012E0DBD00010CED64084C70D50287
:1000C00001351200EAC293C295C2B5E4FAEAC394BC
:1000D0000A7480948050F474082AF8E6FF12008FA6
:1000E0007F2C7E0112010C0A80E3E4F594F593F570
:1000F00092F591F596F595F5B2F5B1F5B4F5B3F540
:10010000CAF5C9F5CCF5CBF5E2F5E122EF1FAC0657
:1001100070011E4C600A7D3C7C93DCFEDDFC80ECB3
:10012000220A08FC60DBF266B6BEE0FEF600D2955D
:0C0130000000C29522D2930000C293226E
:00000001FF
