:10000000020266E4FB7580FE20840E7F64FE12040B
:10001000833084FD12047F7B0120850B12047F3026
:1000200085FD12047F7B0E20860B12047F3086FD37
:1000300012047F7B0F20870B12047F3087FD120490
:100040007F7B107580FD20840B12047F3084FD12AD
:10005000047F7B0D20850B12047F3085FD12047F09
:100060007B0A20860B12047F3086FD12047F7B0BF7
:1000700020870B12047F3087FD12047F7B0C758074
:10008000FB20840B12047F3084FD12047F7B092047
:10009000850B12047F3085FD12047F7B0620860BC2
:1000A00012047F3086FD12047F7B0720870B120429
:1000B0007F3087FD12047F7B087580F720840B1248
:1000C000047F3084FD12047F7B0520850B12047FA2
:1000D0003085FD12047F7B0220860B12047F308660
:1000E000FD12047F7B0320870B12047F3087FD12F3
:1000F000047F7B04AF03221204211204B17F0A7E25
:1001000000120483751605AB0AAA097D017F01124E
:1001100003FD751605AB0CAA0B7D017F021203FDD2
:100120001200038F08E50860F71202F2EF24F8606E
:100130003024DE601A24FD601124FE601724F26072
:100140001B2412702175112B800D75112D800875DF
:10015000112A800375112F751001804E12036A80D9
:100160004943C7208044E510AF0870201202F2EF27
:1001700024D0FBE434FFFAAE09AF0A7C007D0A12FA
:1001800001FFEF2BF50AEE3AF509801E1202F2EF9D
:1001900024D0FBE434FFFAAE0BAF0C7C007D0A12D6
:1001A00001FFEF2BF50CEE3AF50B751605AB0AAA1D
:1001B000097D017F011203FD751605AB0CAA0B7DAD
:1001C000017F021203FDAB117D087F011204DE02E4
:1001D0000120BB010CE58229F582E5833AF583E035
:1001E000225006E92582F8E622BBFE06E92582F8C0
:1001F000E222E58229F582E5833AF583E49322EF52
:100200008DF0A4A8F0CF8CF0A428CE8DF0A42EFE03
:1002100022BC000BBE0029EF8DF084FFADF022E47C
:10022000CCF875F008EF2FFFEE33FEEC33FCEE9DBB
:10023000EC984005FCEE9DFE0FD5F0E9E4CEFD22E2
:10024000EDF8F5F0EE8420D21CFEADF075F008EF6D
:100250002FFFED33FD4007985006D5F0F222C398EA
:10026000FD0FD5F0EA22787FE4F6D8FD75811A02F9
:1002700002AD0200F7E493A3F8E493A34003F680F1
:1002800001F208DFF48029E493A3F85407240CC892
:10029000C333C4540F4420C8834004F4568001463D
:1002A000F6DFE4800B0102040810204080900498DF
:1002B000E47E019360BCA3FF543F30E509541FFE68
:1002C000E493A360010ECF54C025E060A840B8E4D9
:1002D00093A3FAE493A3F8E493A3C8C582C8CAC55C
:1002E00083CAF0A3C8C582C8CAC583CADFE9DEE7EE
:1002F00080BEEF14B41000506E90030775F003A495
:10030000C58325F0C5837302033702033A02033D18
:1003100002034002034302034602034902034C0264
:10032000034F02035202035502035802035B020308
:100330005E0203610203647F37227F38227F392205
:100340007F2B227F34227F35227F36227F2D227F12
:1003500031227F32227F33227F2A227F30227F0880
:10036000227F3D227F2F227F0022E51124D66029A3
:1003700024FD601624FE602E24047039E50A250C45
:10038000F50FE509350BF50E802BC3E50A950CF545
:100390000FE509950BF50E801CAC0BAD0CAE09AF4B
:1003A0000A1201FF800BAC0BAD0CAE09AF0A1202B2
:1003B000118E0E8F0F7B3D7D077F021204DE7516B6
:1003C00005AB0FAA0E7D087F020203FDEF24FFFD9F
:1003D000EE34FFFC7F0A8E178F188C198D1A7F015F
:1003E0007E00E4FBEBC3951AE5196480F8748098ED
:1003F000500AAC17AD181201FF0B80E8228A148B4B
:1004000015120461AA16EAFF7E00D394007480944A
:1004100080400D1203CCAC14AD151204431A80E6D3
:1004200022E4F594F593F592F591F596F595F5B2EC
:10043000F5B1F5B4F5B3F5CAF5C9F5CCF5CBF5E2F0
:10044000F5E122CFCDCFCECCCE1202117C007D0AB9
:10045000120211ED2430FFD2FC1204C5C2FE0204C8
:10046000CBAE07EEFB7A0064017004ED148009EB5B
:1004700064024A7009ED243F4480FF1204D4227FB5
:10048000647E00EF1FAC0670011E4C600A7D3C7C50
:1004900093DCFEDDFC80EC22010800010D00011060
:1004A0000001112002090000020B0000020E0000F2
:1004B000007F381204D47F0C1204D47F061204D4B7
:1004C0007F010204D4C2FD8FA0D2FE7F027EEFDE48
:1004D000FEDFFC22C2FC1204C5C2FE0204CBAC0348
:0804E000120461AF040204578D
:00000001FF
