:10000000020097BB010CE58229F582E5833AF5836E
:10001000E0225006E92582F8E622BBFE06E92582A9
:10002000F8E222E58229F582E5833AF583E493221A
:10003000EF8DF0A4A8F0CF8CF0A428CE8DF0A42EE4
:10004000FE22BC000BBE0029EF8DF084FFADF02234
:10005000E4CCF875F008EF2FFFEE33FEEC33FCEE46
:100060009DEC984005FCEE9DFE0FD5F0E9E4CEFD39
:1000700022EDF8F5F0EE8420D21CFEADF075F0080C
:10008000EF2FFFED33FD4007985006D5F0F222C365
:1000900098FD0FD5F0EA22787FE4F6D8FD75810A45
:1000A0000200DE0201ADE493A3F8E493A34003F65B
:1000B0008001F208DFF48029E493A3F85407240CAC
:1000C000C8C333C4540F4420C8834004F45680018D
:1000D00046F6DFE4800B0102040810204080900106
:1000E000CBE47E019360BCA3FF543F30E509541F6D
:1000F000FEE493A360010ECF54C025E060A840B891
:10010000E493A3FAE493A3F8E493A3C8C582C8CA0E
:10011000C583CAF0A3C8C582C8CAC583CADFE9DEE1
:10012000E780BEE4FB20E80E7F14FE12017B30E87E
:10013000FD1201777B0120E90B12017730E9FD12F6
:1001400001777B0220EA0B12017730EAFD1201777A
:100150007B03AF0322E4F594F593F592F591F596C0
:10016000F595F5B2F5B1F5B4F5B3F5CAF5C9F5CC29
:10017000F5CBF5E2F5E1227F147E00EF1FAC0670AF
:10018000011E4C600C00007D3A7C70DCFEDDFC80C2
:10019000EA22AD07AC06E4FBFAC3EB9DEA9C500CE7
:1001A000B2C21201C20BBB00010A80ED221201553E
:1001B0001201238F0AE50A60F77F647E0012019224
:1001C00080EE7F1D7EB7DEFEDFFC22010A00020802
:0301D0000000002C
:00000001FF
