:10000000020003787FE4F6D8FD75810902004A02F8
:10001000008FE493A3F8E493A34003F68001F20871
:10002000DFF48029E493A3F85407240CC8C333C435
:10003000540F4420C8834004F456800146F6DFE4A0
:10004000800B010204081020408090010AE47E0128
:100050009360BCA3FF543F30E509541FFEE493A313
:1000600060010ECF54C025E060A840B8E493A3FA25
:10007000E493A3F8E493A3C8C582C8CAC583CAF0B1
:10008000A3C8C582C8CAC583CADFE9DEE780BE123D
:1000900000CF1200F1D28620EA0E1200F130EAFD04
:1000A0001200F10508750901E50960EBE508540146
:1000B000C37001D39287E5085402C37001D39286BE
:1000C000E5085404C37001D39285E4F50980C8E4BF
:1000D000F594F593F592F591F596F595F5B2F5B1A0
:1000E000F5B4F5B3F5CAF5C9F5CCF5CBF5E2F5E114
:1000F000227F147E00EF1FAC0670011E4C600A7D4B
:100100003C7C93DCFEDDFC80EC220108000109014F
:0101100000EE
:00000001FF
