:0A0000000200A2010800010900003F
:10000B0002012EBB010CE58229F582E5833AF583CB
:10001B00E0225006E92582F8E622BBFE06E925829E
:10002B00F8E222E58229F582E5833AF583E493220F
:10003B00EF8DF0A4A8F0CF8CF0A428CE8DF0A42ED9
:10004B00FE22BC000BBE0029EF8DF084FFADF02229
:10005B00E4CCF875F008EF2FFFEE33FEEC33FCEE3B
:10006B009DEC984005FCEE9DFE0FD5F0E9E4CEFD2E
:10007B0022EDF8F5F0EE8420D21CFEADF075F00801
:10008B00EF2FFFED33FD4007985006D5F0F222C35A
:10009B0098FD0FD5F0EA22787FE4F6D8FD7581093B
:1000AB000200E9020176E493A3F8E493A34003F67C
:1000BB008001F208DFF48029E493A3F85407240CA1
:1000CB00C8C333C4540F4420C8834004F456800182
:1000DB0046F6DFE4800B01020408102040809000FC
:1000EB0003E47E019360BCA3FF543F30E509541F2A
:1000FB00FEE493A360010ECF54C025E060A840B886
:10010B00E493A3FAE493A3F8E493A3C8C582C8CA03
:10011B00C583CAF0A3C8C582C8CAC583CADFE9DED6
:10012B00E780BEC0E0C083C082C0D075D000C006DF
:10013B00E50825E02403F582E43402F5837401938A
:10014B007002E493601AE50825E02403F582E43499
:10015B0002F583E493FE740193F58AEEF58CB2C23B
:10016B00D006D0D0D082D083D0E0321201B11201B0
:10017B00D3E50990026593F47004C28C80F3AF0948
:10018B000509EF90026593F508AF090509EF937523
:10019B00F0C8A4FFAEF01201EDC28C7F057E0012F9
:1001AB0001EDD28C80CBE4F594F593F592F591F5B6
:1001BB0096F595F5B2F5B1F5B4F5B3F5CAF5C9F504
:1001CB00CCF5CBF5E2F5E122538E7F5389F04389D1
:1001DB0001C28DD28CD2A9D2AFC2B9758A89758C66
:1001EB00F822EF1FAC0670011E4C600B007D3A7CB1
:1001FB0072DCFEDDFC80EB220000F889F8F4F95983
:10020B00F9B9FA13FA68FAB9FB04FB4CFB90FBCF74
:10021B00FC0CFC44FC7AFCADFCDCFD0AFD34FD5C03
:10022B00FD82FDA6FDC8FDE8FE06FE22FE3DFE5644
:10023B00FE6EFE85FE9AFEAEFEC1FED3FEE4FEF41C
:10024B00FF03FF11FF1FFF2BFF37FF42FF4DFF5730
:10025B00FF61FF6AFF72FF7AFF8100040004000454
:10026B000001140119011B011B021D021D080001D5
:10027B0019011B011D011B02200220080001200196
:10028B002201240124022502250627022902270226
:10029B0025020004000400040004010208020D0200
:1002AB000F02110200020004FF0D040D04140414CC
:1002BB000416041604140812041204110411040F7A
:0602CB00040F040D08FF02
:00000001FF
