:10000000020097BB010CE58229F582E5833AF5836E
:10001000E0225006E92582F8E622BBFE06E92582A9
:10002000F8E222E58229F582E5833AF583E493221A
:10003000EF8DF0A4A8F0CF8CF0A428CE8DF0A42EE4
:10004000FE22BC000BBE0029EF8DF084FFADF02234
:10005000E4CCF875F008EF2FFFEE33FEEC33FCEE46
:100060009DEC984005FCEE9DFE0FD5F0E9E4CEFD39
:1000700022EDF8F5F0EE8420D21CFEADF075F0080C
:10008000EF2FFFED33FD4007985006D5F0F222C365
:1000900098FD0FD5F0EA22787FE4F6D8FD7581113E
:1000A0000200DE020123E493A3F8E493A34003F6E5
:1000B0008001F208DFF48029E493A3F85407240CAC
:1000C000C8C333C4540F4420C8834004F45680018D
:1000D00046F6DFE4800B0102040810204080900403
:1000E00045E47E019360BCA3FF543F30E509541FF3
:1000F000FEE493A360010ECF54C025E060A840B891
:10010000E493A3FAE493A3F8E493A3C8C582C8CA0E
:10011000C583CAF0A3C8C582C8CAC583CADFE9DEE1
:10012000E780BEE4F508F509F50AF50B7F32FE120B
:10013000038012031E1203977F327E001203804356
:10014000B11043B12043B21043B2207BFF7A04794F
:10015000517D017F011202FB1202A38F0BEF64019C
:10016000700E7BFF7A04795F7D0AFF12027080E8CF
:10017000E50B6402700B1511AD117F011203AE8007
:10018000D7E50B640370D1F508C3E508940A7480C1
:10019000948050C4AF081202D5AB07E50804FD7F78
:1001A00002120432050880E1AC0712040AE4FDAF34
:1001B00010A907E4FBEBC3940774809480501C7E65
:1001C000007440A803088006CEA2E713CE13D8F827
:1001D0001203C5C2B41203E10B80DAED24FF92B51D
:1001E000D2B41203D5C2B41203D51203DAA2B5E415
:1001F00033FEC2B41203D5FF22E4FEFDD2B51203D2
:10020000F1FEEEC3940874809480501DD2B41203A2
:10021000D530B50DA8067480088002C313D8FC42FF
:1002200005C2B41203D50E80D9D2B51203D0C2B420
:100230001203D5AF0522A907E4FDFBEBC3940874B4
:10024000809480501C7E007480A803088006CEA293
:10025000E713CE13D8F81203C5C2B41203E10B8022
:10026000DA1203DAA2B5E433FDC2B41203D5FF22D9
:100270008D0C8B0D8A0E890F1201A8AF0412023665
:10028000E4FCECC3950C5015AB0DAA0EA90F8C82A3
:10029000758300120003FF1202360C80E51203EB97
:1002A0000203F1E4FB20E80E7F14FE12038030E825
:1002B000FD12037C7B0120E90B12037C30E9FD1267
:1002C000037C7B0220EA0B12037C30EAFD12037CE4
:1002D0007B03AF03221201A8AF04120236120419E5
:1002E00012043C12040A7D01AF101201B11203F195
:1002F0001201F9AE07120419AF06228B0C8A0D8980
:100300000E12035EE4FDAB0CAA0DA90E8D8275835F
:1003100000120003FF60061203540D80E922E4F589
:1003200094F593F592F591F596F595F5B2F5B1F54D
:10033000B4F5B3F5CAF5C9F5CCF5CBF5E2F5E12294
:10034000CFCDCFCECCCE1200427C007D0A1200422F
:10035000ED2430FFD2FC1203FBC2FE020401AE0703
:10036000EEFB7A0064017004ED148009EB64024A2C
:100370007009ED243F4480FF120428227F147E0080
:10038000EF1FAC0670011E4C600C00007D3B7C68CA
:10039000DCFEDDFC80EA227F381204287F0C120488
:1003A000287F061204287F01120428020401AC05EC
:1003B000AA071201AAAF02120236AF0412023612C5
:1003C00003EB0203F1FFE9F582EF558224FF92B5BA
:1003D0001203D5D2B47F58DFFE22D2B512044CD21C
:1003E000B4007F027E0ADEFEDFFC22120419120333
:1003F000F1007F757ED4DEFEDFFC22C2FD8F80D24D
:10040000FE7F027EEFDEFEDFFC22D2B51203D0C2F9
:10041000B51203D5C2B40203D5C2B41203D5C2B516
:100420001203D0D2B50203D5C2FC1203FBC2FE02F6
:100430000401AC0312035EAF040203547F0A7E562C
:10044000DEFEDFFC22011050011100007FB2DFFE52
:1004500022312B2B20322D2D20334C4F414400488C
:0A046000656C6C6F576F726C6400DE
:00000001FF
