:100000000201967580FE20840C1202F63084FD12E7
:1000100002F675120120850C1202F63085FD1202DF
:10002000F675120E20860C1202F63086FD1202F6CC
:1000300075120F20870C1202F63087FD1202F6753A
:1000400012107580FD20840C1202F63084FD12021D
:10005000F675120D20850C1202F63085FD1202F69F
:1000600075120A20860C1202F63086FD1202F67511
:10007000120B20870C1202F63087FD1202F6751261
:100080000C7580FB20840C1202F63084FD1202F6FF
:1000900075120920850C1202F63085FD1202F675E4
:1000A000120620860C1202F63086FD1202F6751238
:1000B0000720870C1202F63087FD1202F67512082F
:1000C0007580F720840C1202F63084FD1202F6755A
:1000D000120520850C1202F63085FD1202F675120B
:1000E0000220860C1202F63086FD1202F67512030B
:1000F00020870C1202F63087FD1202F6751204AF4B
:100100001222BB010CE58229F582E5833AF583E0F2
:10011000225006E92582F8E622BBFE06E92582F890
:10012000E222E58229F582E5833AF583E49322EF22
:100130008DF0A4A8F0CF8CF0A428CE8DF0A42EFED4
:1001400022BC000BBE0029EF8DF084FFADF022E44D
:10015000CCF875F008EF2FFFEE33FEEC33FCEE9D8C
:10016000EC984005FCEE9DFE0FD5F0E9E4CEFD22B3
:10017000EDF8F5F0EE8420D21CFEADF075F008EF3E
:100180002FFFED33FD4007985006D5F0F222C398BB
:10019000FD0FD5F0EA22787FE4F6D8FD75811202D2
:1001A00001DD020299E493A3F8E493A34003F680EF
:1001B00001F208DFF48029E493A3F85407240CC863
:1001C000C333C4540F4420C8834004F4568001460E
:1001D000F6DFE4800B010204081020408090033C0D
:1001E000E47E019360BCA3FF543F30E509541FFE39
:1001F000E493A360010ECF54C025E060A840B8E4AA
:1002000093A3FAE493A3F8E493A3C8C582C8CAC52C
:1002100083CAF0A3C8C582C8CAC583CADFE9DEE7BE
:1002200080BEEF24FFFDEE34FFFC7F0A8E0D8F0EA3
:100230008C0F8D107F017E00E4FBEBC39510E50F62
:100240006480F8748098500AAC0DAD0E12012F0B2B
:1002500080E8228A0A8B0B1202D8AA0CEAFF7E00E1
:10026000D3940074809480400D120222AC0AAD0B2E
:100270001202BA1A80E622E4F594F593F592F5910C
:10028000F596F595F5B2F5B1F5B4F5B3F5CAF5C93E
:10029000F5CCF5CBF5E2F5E12212027712030F124D
:1002A00000038F11E51160F7FB7A00750C027D01E8
:1002B0007F01120253E4F51180E5CFCDCFCECCCE35
:1002C0001201417C007D0A120141ED2430FFD2FC75
:1002D000120323C2FE020329AE07EEFB7A0064017B
:1002E0007004ED148009EB64024A7009ED243F4468
:1002F00080FF120332227F147E00EF1FAC067001D4
:100300001E4C600A7D3C7C93DCFEDDFC80EC227F91
:10031000381203327F0C1203327F061203327F0140
:10032000020332C2FD8FA0D2FE7F027EEFDEFEDF2F
:10033000FC22C2FC120323C2FE02032901120001A7
:03034000110000A9
:00000001FF
