:0A0000000200A2436C6F636B3A002C
:10000B00020185BB010CE58229F582E5833AF58374
:10001B00E0225006E92582F8E622BBFE06E925829E
:10002B00F8E222E58229F582E5833AF583E493220F
:10003B00EF8DF0A4A8F0CF8CF0A428CE8DF0A42ED9
:10004B00FE22BC000BBE0029EF8DF084FFADF02229
:10005B00E4CCF875F008EF2FFFEE33FEEC33FCEE3B
:10006B009DEC984005FCEE9DFE0FD5F0E9E4CEFD2E
:10007B0022EDF8F5F0EE8420D21CFEADF075F00801
:10008B00EF2FFFED33FD4007985006D5F0F222C35A
:10009B0098FD0FD5F0EA22787FE4F6D8FD7581152F
:1000AB000200E902012EE493A3F8E493A34003F6C4
:1000BB008001F208DFF48029E493A3F85407240CA1
:1000CB00C8C333C4540F4420C8834004F456800182
:1000DB0046F6DFE4800B01020408102040809002FA
:1000EB00DCE47E019360BCA3FF543F30E509541F51
:1000FB00FEE493A360010ECF54C025E060A840B886
:10010B00E493A3FAE493A3F8E493A3C8C582C8CA03
:10011B00C583CAF0A3C8C582C8CAC583CADFE9DED6
:10012B00E780BE12024112029F1202B97BFF7A00D6
:10013B0079037D017F0112021EE514FB7A00750C19
:10014B00027D017F021201FA7B3A7D037F021202CC
:10015B00F4E515FB7A00750C027D047F021201FA9F
:10016B007B3A7D067F021202F4E513FB7A00750CD5
:10017B00027D077F021201FA80B2C0E0C0D0758AFF
:10018B005A758CF10512E51270020511C394E8E55E
:10019B0011940340247511007512000513E51364C7
:1001AB003C7016F5130515E515643C700CF515053B
:1001BB0014E51464187002F514D0D0D0E032EF249B
:1001CB00FFFDEE34FFFC7F0A8E0D8F0E8C0F8D1012
:1001DB007F017E00E4FBEBC39510E50F6480F874A0
:1001EB008098500AAC0DAD0E12003B0B80E8228AB2
:1001FB000A8B0B120281AA0CEAFF7E00D3940074C7
:10020B00809480400D1201C9AC0AAD0B1202631A27
:10021B0080E6228B088A09890A120281E4FDAB0869
:10022B00AA09A90A8D8275830012000EFF600612BF
:10023B0002770D80E922E4F594F593F592F591F5AB
:10024B0096F595F5B2F5B1F5B4F5B3F5CAF5C9F573
:10025B00CCF5CBF5E2F5E122CFCDCFCECCCE120053
:10026B004D7C007D0A12004DED2430FFD2FC1202B2
:10027B00CDC2FE0202D3AE07EEFB7A00640170041E
:10028B00ED148009EB64024A7009ED243F4480FFB2
:10029B001202EA22538E7F5389F0438901C28DD219
:1002AB008C758A5A758CF1D2A9D2AFC2B9227F381C
:1002BB001202EA7F0C1202EA7F061202EA7F0102A7
:1002CB0002EAC2FD8F80D2FE7F027EEFDEFEDFFCF4
:1002DB002201141701153A0113320211000000C25A
:1002EB00FC1202CDC2FE0202D3AC03120281AF0498
:0302FB0002027785
:00000001FF
