:10000000020097BB010CE58229F582E5833AF5836E
:10001000E0225006E92582F8E622BBFE06E92582A9
:10002000F8E222E58229F582E5833AF583E493221A
:10003000EF8DF0A4A8F0CF8CF0A428CE8DF0A42EE4
:10004000FE22BC000BBE0029EF8DF084FFADF02234
:10005000E4CCF875F008EF2FFFEE33FEEC33FCEE46
:100060009DEC984005FCEE9DFE0FD5F0E9E4CEFD39
:1000700022EDF8F5F0EE8420D21CFEADF075F0080C
:10008000EF2FFFED33FD4007985006D5F0F222C365
:1000900098FD0FD5F0EA22787FE4F6D8FD75811E31
:1000A0000200DE0201ABE493A3F8E493A34003F65D
:1000B0008001F208DFF48029E493A3F85407240CAC
:1000C000C8C333C4540F4420C8834004F45680018D
:1000D00046F6DFE4800B0102040810204080900205
:1000E00046E47E019360BCA3FF543F30E509541FF2
:1000F000FEE493A360010ECF54C025E060A840B891
:10010000E493A3FAE493A3F8E493A3C8C582C8CA0E
:10011000C583CAF0A3C8C582C8CAC583CADFE9DEE1
:10012000E780BEAD07E4F9120203C2FCC2FE43053C
:1001300001D2FCE4FCECC394087480948050337EBC
:10014000007401A804088005C333CE33CED8F9FF6C
:10015000EDFBEF5B6004D2FD8002C2FD120203C220
:10016000FE120203D2FE1202031202031202030C59
:1001700080C3120203120203E4FCECC394087480EF
:1001800094805020D2FE120203C2FE12020330FD00
:100190000DA8047401088002C333D8FC4201120286
:1001A000030C80D6C2FCC2FDAF01221201D812029C
:1001B0005D7F0A7E0012021812022F1202927F64E3
:1001C0007E001202187F811201238F0812028A7F9B
:1001D000E87E0312021880EDE4F594F593F592F5AC
:1001E00091F596F595F5B2F5B1F5B4F5B3F5CAF517
:1001F000C9F5CCF5CBF5E2F5E122F582EF55822485
:10020000FF92FD751D00751E0AE51E151E70021574
:100210001D14AE1D4E70F222EF1FAC0670011E4C75
:10022000600C00007D3A7C70DCFEDDFC80EA22750B
:100230009850438E40538EFE53890F758BA0758D59
:10024000FFC2ABD28E2214090000000000000000A3
:10025000000000000000000000000000007F3812D5
:1002600002807F0C1202807F061202807F01020250
:1002700080C2FD8F80D2FE7F027EEFDEFEDFFC2299
:10028000C2FC120271C2FE0202778F993099FDC240
:090290009922C2FCC2FEC2FD224B
:00000001FF
