:10000000020003787FE4F6D8FD75810802004A02F9
:1000100000F0E493A3F8E493A34003F68001F20810
:10002000DFF48029E493A3F85407240CC8C333C435
:10003000540F4420C8834004F456800146F6DFE4A0
:10004000800B0102040810204080900113E47E011F
:100050009360BCA3FF543F30E509541FFEE493A313
:1000600060010ECF54C025E060A840B8E493A3FA25
:10007000E493A3F8E493A3C8C582C8CAC583CAF0B1
:10008000A3C8C582C8CAC583CADFE9DEE780BEADA2
:1000900007120103C295120103E4F508C3E50894B1
:1000A000087480948050247E007401A8080880059C
:1000B000C333CE33CED8F9FFEDFBEF5B6004D295AE
:1000C0008002C295120103050880D1D29502010376
:1000D0007401FF3395E0FEFDFC080808E6CF2FF61B
:1000E00018E6CE3EF618E6CD3DF618E6CC3CF622F4
:1000F000E4F594F593F5CCF5CB12010C7F0F1200CB
:100100008F80F97F097EF4DEFEDFFC227592FFE42A
:07011000F591220108000037
:00000001FF
